:100000000C942A000C947F050C94A8050C94D1053F
:100010000C9447000C9447000C9447000C94470044
:100020000C9447000C9447000C949F010C944700DB
:100030000C9447000C9447000C9447000C94470024
:100040000C9447000C9447000C9447000C94470014
:100050000C94470011241FBECFE5D8E0DEBFCDBF12
:1000600010E0A0E6B0E0E8EFFBE002C005900D92E2
:10007000A438B107D9F720E0A4E8B0E001C01D9290
:10008000A439B207E1F70E9408030C94FA050C9416
:100090000000813069F028F0823089F08330B1F0BF
:1000A0001CC040E062E083E00E94C80180E0089547
:1000B00040E063E083E00E94C80180E0089540E0F2
:1000C00064E083E00E94C80180E0089540E065E0BC
:1000D00083E00E94C80180E0089581E0089541E036
:1000E000FC01618180810E94C801089541E0FC010A
:1000F000618180810E945A0280E0089540E0FC0105
:10010000618180810E945A0280E00895823021F14D
:1001100028F4882349F0813099F04EC08430A1F151
:1001200038F18530E9F148C083B78E7F83BF83B74C
:100130008D7F83BF83B78B7F83BF8CEB92E0089565
:1001400083B7816083BF83B78D7F83BF83B78B7F86
:1001500083BF8CEB92E0089583B78E7F83BF83B714
:10016000826083BF83B78B7F83BF8CEB92E008955F
:1001700083B7816083BF83B7826083BF83B78B7F80
:1001800083BF8CEB92E0089583B78E7F83BF83B7E4
:100190008D7F83BF83B7846083BF8CEB92E008952B
:1001A00083B7816083BF83B78D7F83BF83B784604C
:1001B00083BF8CEB92E008958FEB92E0089508B630
:1001C00001FE05C088B7826088BF81E0089580E0A5
:1001D0000895FC018081813069F028F0823089F037
:1001E0008330B1F01BC083B78F7B83BF83B7877F1A
:1001F00083BF14C083B78F7B83BF83B7886083BFFF
:100200000DC083B7806483BF83B7886083BF06C097
:1002100083B7806483BF83B7877F83BF92818081E8
:10022000823051F1833009F442C0813009F059C065
:10023000913069F028F0923089F09330B1F051C0DC
:1002400083B78F7E83BF83B78F7D83BF4AC083B759
:10025000806183BF83B78F7D83BF43C083B78F7EA9
:1002600083BF83B7806283BF3CC083B7806183BF95
:1002700083B7806283BF35C0923059F0933081F0EC
:1002800091112FC083B78F7E83BF83B78F7D83BFCC
:1002900028C083B78F7E83BF83B7806283BF21C0AE
:1002A00083B7806183BF83B7806283BF1AC09230F7
:1002B00059F0933081F0911114C083B78F7E83BFC2
:1002C00083B78F7D83BF0DC083B78F7E83BF83B716
:1002D000806283BF06C083B7806183BF83B78062BB
:1002E00083BF8481813079F48381813029F489B797
:1002F000816089BF789417C0811115C089B78E7F3E
:1003000089BFF89410C081110EC08381813029F417
:1003100089B7826089BF789406C0811104C089B70B
:100320008D7F89BFF894858182BF86818CBF818152
:100330000E9486008111089580EC92E008951F923A
:100340000F920FB60F9211242F933F934F935F9309
:100350006F937F938F939F93AF93BF93EF93FF938D
:10036000E0918E00F0918F00309709F00995FF9190
:10037000EF91BF91AF919F918F917F916F915F911D
:100380004F913F912F910F900FBE0F901F90189596
:10039000853008F081C0693008F080C0813029F1D3
:1003A00038F0823009F43EC0833009F458C078C078
:1003B000413061F42AB381E090E002C0880F991FB8
:1003C0006A95E2F7822B8ABB80E0089541116AC0EA
:1003D0002AB381E090E002C0880F991F6A95E2F786
:1003E000809582238ABB80E00895413061F427B371
:1003F00081E090E002C0880F991F6A95E2F7822B96
:1004000087BB80E0089541114FC027B381E090E0A1
:1004100002C0880F991F6A95E2F78095822387BBF7
:1004200080E00895413061F424B381E090E002C09F
:10043000880F991F6A95E2F7822B84BB80E00895AC
:10044000411134C024B381E090E002C0880F991FAD
:100450006A95E2F78095822384BB80E0089541305D
:1004600061F421B381E090E002C0880F991F6A9582
:10047000E2F7822B81BB80E00895411119C021B3BE
:1004800081E090E002C0880F991F6A95E2F780959D
:10049000822381BB80E0089581E0089581E0089582
:1004A00081E0089580E0089580E0089580E0089557
:1004B00080E00895853008F081C0693008F080C080
:1004C000813029F138F0823009F43EC0833009F4DC
:1004D00058C078C0413061F42BB381E090E002C095
:1004E000880F991F6A95E2F7822B8BBB80E00895F5
:1004F00041116AC02BB381E090E002C0880F991FC0
:100500006A95E2F7809582238BBB80E008954130A5
:1005100061F428B381E090E002C0880F991F6A95CA
:10052000E2F7822B88BB80E0089541114FC028B3C9
:1005300081E090E002C0880F991F6A95E2F78095EC
:10054000822388BB80E00895413061F425B381E0C7
:1005500090E002C0880F991F6A95E2F7822B85BB55
:1005600080E00895411134C025B381E090E002C0DD
:10057000880F991F6A95E2F78095822385BB80E0FA
:100580000895413061F422B381E090E002C0880F09
:10059000991F6A95E2F7822B82BB80E00895411192
:1005A00019C022B381E090E002C0880F991F6A95BC
:1005B000E2F78095822382BB80E0089581E0089570
:1005C00081E0089581E0089580E0089580E0089535
:1005D00080E0089580E00895CF93DF93EC011092BE
:1005E000850010928400892B81F00E94DF00813009
:1005F000E1F78091840090918500019690938500A9
:10060000809384008C179D0780F3DF91CF9108952C
:100610000E942B030E945E03FDCF809187008F5FB5
:10062000883018F48093870002C01092870088EC0D
:1006300090E00E94EC020895809186008F5F8830E0
:1006400018F48093860002C01092860088EC90E037
:100650000E94EC02089586E690E00E946F0084E616
:1006600090E00E946F0082E690E00E946F0080E6BA
:1006700090E00E946F0080E00E94490081E00E94AB
:1006800049008CE790E00E94E90060E080E00E9471
:100690000E0560E081E00E940E056DE073E080E0F1
:1006A0000E946A056CE173E081E00E946A0580E0C7
:1006B0000E94FB0481E00E94FB040895CF93DF9326
:1006C00080918600813089F4809168009091690062
:1006D000A0916A00B0916B0080939000909391007C
:1006E000A0939200B09393004EC0823089F4809121
:1006F0006C0090916D00A0916E00B0916F0080939E
:10070000900090939100A0939200B09393003BC00F
:10071000833089F48091700090917100A0917200F3
:10072000B09173008093900090939100A0939200F9
:10073000B093930028C0843089F480917400909124
:100740007500A0917600B09177008093900090930F
:100750009100A0939200B093930015C0853089F466
:100760008091780090917900A0917A00B0917B00FF
:100770008093900090939100A0939200B093930087
:1007800002C01092860080918700811111C086E618
:1007900090E00E947E0084E690E00E947E0082E667
:1007A00090E00E947E0080E690E00E947E0020C1E2
:1007B0008130F9F486E690E00E947600C0E9D0E04E
:1007C000888199810E94EC0286E690E00E947E007A
:1007D00084E690E00E947E0082E690E00E947E0027
:1007E00080E690E00E947E008A819B810E94EC025C
:1007F000FFC0823019F586E690E00E94760084E61C
:1008000090E00E947600C0E9D0E0888199810E9442
:10081000EC0286E690E00E947E0084E690E00E9472
:100820007E0082E690E00E947E0080E690E00E94DA
:100830007E008A819B810E94EC02DAC0833039F508
:1008400086E690E00E94760084E690E00E947600C2
:1008500082E690E00E947600C0E9D0E0888199812C
:100860000E94EC0286E690E00E947E0084E690E022
:100870000E947E0082E690E00E947E0080E690E08A
:100880000E947E008A819B810E94EC02B1C084306C
:1008900059F586E690E00E94760084E690E00E949A
:1008A000760082E690E00E94760080E690E00E946A
:1008B0007600C0E9D0E0888199810E94EC0286E64A
:1008C00090E00E947E0084E690E00E947E0082E636
:1008D00090E00E947E0080E690E00E947E008A8187
:1008E0009B810E94EC0284C0853039F584E690E05B
:1008F0000E94760082E690E00E94760080E690E01A
:100900000E947600C0E9D0E0888199810E94EC02C3
:1009100086E690E00E947E0084E690E00E947E00E1
:1009200082E690E00E947E0080E690E00E947E00D9
:100930008A819B810E94EC025BC0863019F582E6B9
:1009400090E00E94760080E690E00E947600C0E988
:10095000D0E0888199810E94EC0286E690E00E94B6
:100960007E0084E690E00E947E0082E690E00E9495
:100970007E0080E690E00E947E008A819B810E943A
:10098000EC0236C08730F9F480E690E00E947600F1
:10099000C0E9D0E0888199810E94EC0286E690E06F
:1009A0000E947E0084E690E00E947E0082E690E055
:1009B0000E947E0080E690E00E947E008A819B81FA
:1009C0000E94EC0215C0883089F486E690E00E940F
:1009D0007E0084E690E00E947E0082E690E00E9425
:1009E0007E0080E690E00E947E0002C010928700A8
:1009F000DF91CF9108957894813041F018F08230E2
:100A000049F008958BB780648BBF08958BB78068D9
:100A10008BBF08958BB780628BBF0895813049F1F9
:100A200020F0823009F449C00895613069F028F05F
:100A3000623089F06330B1F0089585B78E7F85BF4D
:100A400085B78D7F85BF089585B7816085BF85B7E0
:100A50008D7F85BF089585B78E7F85BF85B78260FE
:100A600085BF089585B7816085BF85B7826085BFE2
:100A70000895613069F028F0623089F06330B1F098
:100A8000089585B78B7F85BF85B7877F85BF08951C
:100A900085B7846085BF85B7877F85BF089585B793
:100AA0008B7F85BF85B7886085BF089585B78460D3
:100AB00085BF85B7886085BF0895623019F06330BF
:100AC00029F0089584B78F7B84BF089584B780642C
:100AD00084BF0895813049F018F0823059F00895AC
:100AE00070938D0060938C00089570938B006093D9
:100AF0008A000895709389006093880008951F927A
:100B00000F920FB60F9211242F933F934F935F9341
:100B10006F937F938F939F93AF93BF93EF93FF93C5
:100B2000E0918C00F0918D00309709F00995FF91CC
:100B3000EF91BF91AF919F918F917F916F915F9155
:100B40004F913F912F910F900FBE0F901F901895CE
:100B50001F920F920FB60F9211242F933F934F9332
:100B60005F936F937F938F939F93AF93BF93EF9315
:100B7000FF93E0918A00F0918B00309709F009957E
:100B8000FF91EF91BF91AF919F918F917F916F9165
:100B90005F914F913F912F910F900FBE0F901F903B
:100BA00018951F920F920FB60F9211242F933F9317
:100BB0004F935F936F937F938F939F93AF93BF9365
:100BC000EF93FF93E0918800F0918900309709F04E
:100BD0000995FF91EF91BF91AF919F918F917F9177
:100BE0006F915F914F913F912F910F900FBE0F909A
:080BF0001F901895F894FFCF47
:100BF800020702030201020064008403C800200304
:100C08002C01BC029001F4012003C800000300007D
:040C18000000FA00DE
:00000001FF
